{
  "contractName": "TicketingContract",
  "abi": [
    {
      "constant": true,
      "inputs": [
        {
          "name": "",
          "type": "uint256"
        }
      ],
      "name": "events",
      "outputs": [
        {
          "name": "date",
          "type": "uint256"
        },
        {
          "name": "ticketAmount",
          "type": "uint256"
        },
        {
          "name": "ticketPrice",
          "type": "uint256"
        },
        {
          "name": "name",
          "type": "string"
        },
        {
          "name": "isTicketTradable",
          "type": "bool"
        },
        {
          "name": "isTicketCancelable",
          "type": "bool"
        },
        {
          "name": "status",
          "type": "uint8"
        },
        {
          "name": "lastCancelDate",
          "type": "uint256"
        },
        {
          "name": "ticketsBought",
          "type": "uint256"
        },
        {
          "name": "ticketsCanceled",
          "type": "uint256"
        },
        {
          "name": "owner",
          "type": "address"
        }
      ],
      "payable": false,
      "stateMutability": "view",
      "type": "function"
    },
    {
      "constant": true,
      "inputs": [
        {
          "name": "",
          "type": "address"
        }
      ],
      "name": "balances",
      "outputs": [
        {
          "name": "",
          "type": "uint256"
        }
      ],
      "payable": false,
      "stateMutability": "view",
      "type": "function"
    },
    {
      "constant": true,
      "inputs": [
        {
          "name": "",
          "type": "uint256"
        }
      ],
      "name": "tickets",
      "outputs": [
        {
          "name": "eventId",
          "type": "uint256"
        },
        {
          "name": "owner",
          "type": "address"
        },
        {
          "name": "price",
          "type": "uint256"
        },
        {
          "name": "status",
          "type": "uint8"
        }
      ],
      "payable": false,
      "stateMutability": "view",
      "type": "function"
    },
    {
      "constant": true,
      "inputs": [],
      "name": "eventCount",
      "outputs": [
        {
          "name": "",
          "type": "uint256"
        }
      ],
      "payable": false,
      "stateMutability": "view",
      "type": "function"
    },
    {
      "constant": true,
      "inputs": [],
      "name": "ticketCount",
      "outputs": [
        {
          "name": "",
          "type": "uint256"
        }
      ],
      "payable": false,
      "stateMutability": "view",
      "type": "function"
    },
    {
      "inputs": [],
      "payable": false,
      "stateMutability": "nonpayable",
      "type": "constructor"
    },
    {
      "anonymous": false,
      "inputs": [
        {
          "indexed": false,
          "name": "backer",
          "type": "address"
        },
        {
          "indexed": false,
          "name": "amount",
          "type": "uint256"
        }
      ],
      "name": "FundTransfer",
      "type": "event"
    },
    {
      "anonymous": false,
      "inputs": [
        {
          "indexed": false,
          "name": "eventId",
          "type": "uint256"
        },
        {
          "indexed": false,
          "name": "date",
          "type": "uint256"
        },
        {
          "indexed": false,
          "name": "ticketAmount",
          "type": "uint256"
        },
        {
          "indexed": false,
          "name": "ticketPrice",
          "type": "uint256"
        },
        {
          "indexed": false,
          "name": "name",
          "type": "string"
        },
        {
          "indexed": false,
          "name": "isTicketTradable",
          "type": "bool"
        },
        {
          "indexed": false,
          "name": "isTicketCancelable",
          "type": "bool"
        },
        {
          "indexed": false,
          "name": "lastCancelDate",
          "type": "uint256"
        },
        {
          "indexed": false,
          "name": "owner",
          "type": "address"
        }
      ],
      "name": "EventCreation",
      "type": "event"
    },
    {
      "anonymous": false,
      "inputs": [
        {
          "indexed": false,
          "name": "eventId",
          "type": "uint256"
        },
        {
          "indexed": false,
          "name": "name",
          "type": "string"
        },
        {
          "indexed": false,
          "name": "owner",
          "type": "address"
        }
      ],
      "name": "EventCanceled",
      "type": "event"
    },
    {
      "anonymous": false,
      "inputs": [
        {
          "indexed": false,
          "name": "eventId",
          "type": "uint256"
        },
        {
          "indexed": false,
          "name": "name",
          "type": "string"
        },
        {
          "indexed": false,
          "name": "owner",
          "type": "address"
        }
      ],
      "name": "EventEnded",
      "type": "event"
    },
    {
      "anonymous": false,
      "inputs": [
        {
          "indexed": false,
          "name": "ticketId",
          "type": "uint256"
        },
        {
          "indexed": false,
          "name": "eventId",
          "type": "uint256"
        },
        {
          "indexed": false,
          "name": "owner",
          "type": "address"
        }
      ],
      "name": "TicketBought",
      "type": "event"
    },
    {
      "anonymous": false,
      "inputs": [
        {
          "indexed": false,
          "name": "buyer",
          "type": "address"
        }
      ],
      "name": "FailedToBuy",
      "type": "event"
    },
    {
      "anonymous": false,
      "inputs": [
        {
          "indexed": false,
          "name": "backer",
          "type": "address"
        }
      ],
      "name": "FailedToTransfer",
      "type": "event"
    },
    {
      "anonymous": false,
      "inputs": [
        {
          "indexed": false,
          "name": "ticketId",
          "type": "uint256"
        },
        {
          "indexed": false,
          "name": "backer",
          "type": "address"
        }
      ],
      "name": "TicketCanceled",
      "type": "event"
    },
    {
      "anonymous": false,
      "inputs": [
        {
          "indexed": false,
          "name": "ticketId",
          "type": "uint256"
        },
        {
          "indexed": false,
          "name": "eventId",
          "type": "uint256"
        },
        {
          "indexed": false,
          "name": "price",
          "type": "uint256"
        }
      ],
      "name": "ResellTicketListed",
      "type": "event"
    },
    {
      "constant": false,
      "inputs": [
        {
          "name": "date",
          "type": "uint256"
        },
        {
          "name": "ticketAmount",
          "type": "uint256"
        },
        {
          "name": "ticketPrice",
          "type": "uint256"
        },
        {
          "name": "name",
          "type": "string"
        },
        {
          "name": "isTicketTradable",
          "type": "bool"
        },
        {
          "name": "isTicketCancelable",
          "type": "bool"
        },
        {
          "name": "lastCancelDate",
          "type": "uint256"
        }
      ],
      "name": "createEvent",
      "outputs": [
        {
          "name": "",
          "type": "bool"
        }
      ],
      "payable": false,
      "stateMutability": "nonpayable",
      "type": "function"
    },
    {
      "constant": false,
      "inputs": [
        {
          "name": "eventId",
          "type": "uint256"
        }
      ],
      "name": "cancelEvent",
      "outputs": [
        {
          "name": "",
          "type": "bool"
        }
      ],
      "payable": false,
      "stateMutability": "nonpayable",
      "type": "function"
    },
    {
      "constant": false,
      "inputs": [
        {
          "name": "eventId",
          "type": "uint256"
        }
      ],
      "name": "endEvent",
      "outputs": [
        {
          "name": "",
          "type": "bool"
        }
      ],
      "payable": false,
      "stateMutability": "nonpayable",
      "type": "function"
    },
    {
      "constant": false,
      "inputs": [
        {
          "name": "eventId",
          "type": "uint256"
        }
      ],
      "name": "buyTicket",
      "outputs": [
        {
          "name": "",
          "type": "bool"
        }
      ],
      "payable": true,
      "stateMutability": "payable",
      "type": "function"
    },
    {
      "constant": false,
      "inputs": [],
      "name": "safeWithdrawal",
      "outputs": [],
      "payable": false,
      "stateMutability": "nonpayable",
      "type": "function"
    },
    {
      "constant": false,
      "inputs": [
        {
          "name": "ticketId",
          "type": "uint256"
        }
      ],
      "name": "cancelTicket",
      "outputs": [
        {
          "name": "",
          "type": "bool"
        }
      ],
      "payable": false,
      "stateMutability": "nonpayable",
      "type": "function"
    },
    {
      "constant": false,
      "inputs": [
        {
          "name": "ticketId",
          "type": "uint256"
        }
      ],
      "name": "returnAfterEventCanceled",
      "outputs": [
        {
          "name": "",
          "type": "bool"
        }
      ],
      "payable": false,
      "stateMutability": "nonpayable",
      "type": "function"
    },
    {
      "constant": false,
      "inputs": [
        {
          "name": "ticketId",
          "type": "uint256"
        },
        {
          "name": "price",
          "type": "uint256"
        }
      ],
      "name": "resellTicket",
      "outputs": [
        {
          "name": "",
          "type": "bool"
        }
      ],
      "payable": false,
      "stateMutability": "nonpayable",
      "type": "function"
    },
    {
      "constant": false,
      "inputs": [
        {
          "name": "ticketId",
          "type": "uint256"
        }
      ],
      "name": "buyTicketFromReseller",
      "outputs": [
        {
          "name": "",
          "type": "bool"
        }
      ],
      "payable": true,
      "stateMutability": "payable",
      "type": "function"
    },
    {
      "constant": true,
      "inputs": [
        {
          "name": "_owner",
          "type": "address"
        }
      ],
      "name": "balanceOf",
      "outputs": [
        {
          "name": "",
          "type": "uint256"
        }
      ],
      "payable": false,
      "stateMutability": "view",
      "type": "function"
    },
    {
      "constant": true,
      "inputs": [
        {
          "name": "eventId",
          "type": "uint256"
        }
      ],
      "name": "getEventDate",
      "outputs": [
        {
          "name": "",
          "type": "uint256"
        }
      ],
      "payable": false,
      "stateMutability": "view",
      "type": "function"
    },
    {
      "constant": true,
      "inputs": [
        {
          "name": "eventId",
          "type": "uint256"
        }
      ],
      "name": "getEventTicketAmount",
      "outputs": [
        {
          "name": "",
          "type": "uint256"
        }
      ],
      "payable": false,
      "stateMutability": "view",
      "type": "function"
    },
    {
      "constant": true,
      "inputs": [
        {
          "name": "eventId",
          "type": "uint256"
        }
      ],
      "name": "getEventTicketPrice",
      "outputs": [
        {
          "name": "",
          "type": "uint256"
        }
      ],
      "payable": false,
      "stateMutability": "view",
      "type": "function"
    },
    {
      "constant": true,
      "inputs": [
        {
          "name": "eventId",
          "type": "uint256"
        }
      ],
      "name": "getEventName",
      "outputs": [
        {
          "name": "",
          "type": "string"
        }
      ],
      "payable": false,
      "stateMutability": "view",
      "type": "function"
    },
    {
      "constant": true,
      "inputs": [
        {
          "name": "eventId",
          "type": "uint256"
        }
      ],
      "name": "getEventIsTicketTradable",
      "outputs": [
        {
          "name": "",
          "type": "bool"
        }
      ],
      "payable": false,
      "stateMutability": "view",
      "type": "function"
    },
    {
      "constant": true,
      "inputs": [
        {
          "name": "eventId",
          "type": "uint256"
        }
      ],
      "name": "getEventIsTicketCancelable",
      "outputs": [
        {
          "name": "",
          "type": "bool"
        }
      ],
      "payable": false,
      "stateMutability": "view",
      "type": "function"
    },
    {
      "constant": true,
      "inputs": [
        {
          "name": "eventId",
          "type": "uint256"
        }
      ],
      "name": "getEventEventStatus",
      "outputs": [
        {
          "name": "",
          "type": "uint8"
        }
      ],
      "payable": false,
      "stateMutability": "view",
      "type": "function"
    },
    {
      "constant": true,
      "inputs": [
        {
          "name": "eventId",
          "type": "uint256"
        }
      ],
      "name": "getEventLastCancelDate",
      "outputs": [
        {
          "name": "",
          "type": "uint256"
        }
      ],
      "payable": false,
      "stateMutability": "view",
      "type": "function"
    },
    {
      "constant": true,
      "inputs": [
        {
          "name": "eventId",
          "type": "uint256"
        }
      ],
      "name": "getEventTicketsBought",
      "outputs": [
        {
          "name": "",
          "type": "uint256"
        }
      ],
      "payable": false,
      "stateMutability": "view",
      "type": "function"
    },
    {
      "constant": true,
      "inputs": [
        {
          "name": "eventId",
          "type": "uint256"
        }
      ],
      "name": "getEventTicketsCanceled",
      "outputs": [
        {
          "name": "",
          "type": "uint256"
        }
      ],
      "payable": false,
      "stateMutability": "view",
      "type": "function"
    },
    {
      "constant": true,
      "inputs": [
        {
          "name": "eventId",
          "type": "uint256"
        }
      ],
      "name": "getEventOwner",
      "outputs": [
        {
          "name": "",
          "type": "address"
        }
      ],
      "payable": false,
      "stateMutability": "view",
      "type": "function"
    },
    {
      "constant": true,
      "inputs": [
        {
          "name": "ticketId",
          "type": "uint256"
        }
      ],
      "name": "getTicketEventId",
      "outputs": [
        {
          "name": "",
          "type": "uint256"
        }
      ],
      "payable": false,
      "stateMutability": "view",
      "type": "function"
    },
    {
      "constant": true,
      "inputs": [
        {
          "name": "ticketId",
          "type": "uint256"
        }
      ],
      "name": "getTicketOwner",
      "outputs": [
        {
          "name": "",
          "type": "address"
        }
      ],
      "payable": false,
      "stateMutability": "view",
      "type": "function"
    },
    {
      "constant": true,
      "inputs": [
        {
          "name": "ticketId",
          "type": "uint256"
        }
      ],
      "name": "getTicketPrice",
      "outputs": [
        {
          "name": "",
          "type": "uint256"
        }
      ],
      "payable": false,
      "stateMutability": "view",
      "type": "function"
    },
    {
      "constant": true,
      "inputs": [
        {
          "name": "ticketId",
          "type": "uint256"
        }
      ],
      "name": "getTicketStatus",
      "outputs": [
        {
          "name": "",
          "type": "uint8"
        }
      ],
      "payable": false,
      "stateMutability": "view",
      "type": "function"
    }
  ],
  "bytecode": "0x608060405234801561001057600080fd5b5060008081905550620f424060018190555061337c806100316000396000f300608060405260043610610180576000357c0100000000000000000000000000000000000000000000000000000000900463ffffffff1680630b791430146101855780631fb7699f146102b357806326c9548f146102f457806327e235e3146103355780632a4ecbd31461038c578063330a347b146103cd578063348e9913146104125780633f69babd146104615780634945fcc7146104a6578063509685e91461054c57806350b447121461059b578063543b3f7f1461062b578063585f43121461066c5780636459d3b41461072d578063671b9e101461076e57806367dd74ca146107a65780636c82942e146107de57806370a082311461082357806371be2e4a1461087a5780637510cfaf146108a55780639e16c19b146108e6578063a1aa6a951461092b578063ad09340914610970578063bba1dce6146109dd578063cfbd900f14610a1e578063ee355b1f14610a49578063f06fc96114610a8e578063fb87774c14610acf578063fd6b7ef814610b1e578063fe210f6914610b35575b600080fd5b34801561019157600080fd5b506101b060048036038101908080359060200190929190505050610ba2565b604051808c81526020018b81526020018a81526020018060200189151515158152602001881515151581526020018760018111156101ea57fe5b60ff1681526020018681526020018581526020018481526020018373ffffffffffffffffffffffffffffffffffffffff1673ffffffffffffffffffffffffffffffffffffffff16815260200182810382528a818151815260200191508051906020019080838360005b8381101561026e578082015181840152602081019050610253565b50505050905090810190601f16801561029b5780820380516001836020036101000a031916815260200191505b509c5050505050505050505050505060405180910390f35b3480156102bf57600080fd5b506102de60048036038101908080359060200190929190505050610cdb565b6040518082815260200191505060405180910390f35b34801561030057600080fd5b5061031f60048036038101908080359060200190929190505050610cfb565b6040518082815260200191505060405180910390f35b34801561034157600080fd5b50610376600480360381019080803573ffffffffffffffffffffffffffffffffffffffff169060200190929190505050610d1b565b6040518082815260200191505060405180910390f35b34801561039857600080fd5b506103b760048036038101908080359060200190929190505050610d33565b6040518082815260200191505060405180910390f35b3480156103d957600080fd5b506103f860048036038101908080359060200190929190505050610d53565b604051808215151515815260200191505060405180910390f35b34801561041e57600080fd5b506104476004803603810190808035906020019092919080359060200190929190505050611259565b604051808215151515815260200191505060405180910390f35b34801561046d57600080fd5b5061048c6004803603810190808035906020019092919050505061153c565b604051808215151515815260200191505060405180910390f35b3480156104b257600080fd5b506104d1600480360381019080803590602001909291905050506118d9565b6040518080602001828103825283818151815260200191508051906020019080838360005b838110156105115780820151818401526020810190506104f6565b50505050905090810190601f16801561053e5780820380516001836020036101000a031916815260200191505b509250505060405180910390f35b34801561055857600080fd5b5061057760048036038101908080359060200190929190505050611991565b6040518082600181111561058757fe5b60ff16815260200191505060405180910390f35b3480156105a757600080fd5b506105c6600480360381019080803590602001909291905050506119be565b604051808581526020018473ffffffffffffffffffffffffffffffffffffffff1673ffffffffffffffffffffffffffffffffffffffff16815260200183815260200182600181111561061457fe5b60ff16815260200194505050505060405180910390f35b34801561063757600080fd5b5061065660048036038101908080359060200190929190505050611a1b565b6040518082815260200191505060405180910390f35b34801561067857600080fd5b50610713600480360381019080803590602001909291908035906020019092919080359060200190929190803590602001908201803590602001908080601f016020809104026020016040519081016040528093929190818152602001838380828437820191505050505050919291929080351515906020019092919080351515906020019092919080359060200190929190505050611a3b565b604051808215151515815260200191505060405180910390f35b34801561073957600080fd5b5061075860048036038101908080359060200190929190505050611e7e565b6040518082815260200191505060405180910390f35b61078c60048036038101908080359060200190929190505050611e9e565b604051808215151515815260200191505060405180910390f35b6107c4600480360381019080803590602001909291905050506122b0565b604051808215151515815260200191505060405180910390f35b3480156107ea57600080fd5b5061080960048036038101908080359060200190929190505050612735565b604051808215151515815260200191505060405180910390f35b34801561082f57600080fd5b50610864600480360381019080803573ffffffffffffffffffffffffffffffffffffffff169060200190929190505050612762565b6040518082815260200191505060405180910390f35b34801561088657600080fd5b5061088f6127ab565b6040518082815260200191505060405180910390f35b3480156108b157600080fd5b506108d0600480360381019080803590602001909291905050506127b1565b6040518082815260200191505060405180910390f35b3480156108f257600080fd5b50610911600480360381019080803590602001909291905050506127d1565b604051808215151515815260200191505060405180910390f35b34801561093757600080fd5b50610956600480360381019080803590602001909291905050506127fe565b604051808215151515815260200191505060405180910390f35b34801561097c57600080fd5b5061099b60048036038101908080359060200190929190505050612bdc565b604051808273ffffffffffffffffffffffffffffffffffffffff1673ffffffffffffffffffffffffffffffffffffffff16815260200191505060405180910390f35b3480156109e957600080fd5b50610a0860048036038101908080359060200190929190505050612c1c565b6040518082815260200191505060405180910390f35b348015610a2a57600080fd5b50610a33612c3c565b6040518082815260200191505060405180910390f35b348015610a5557600080fd5b50610a7460048036038101908080359060200190929190505050612c42565b604051808215151515815260200191505060405180910390f35b348015610a9a57600080fd5b50610ab960048036038101908080359060200190929190505050612fbb565b6040518082815260200191505060405180910390f35b348015610adb57600080fd5b50610afa60048036038101908080359060200190929190505050612fdb565b60405180826001811115610b0a57fe5b60ff16815260200191505060405180910390f35b348015610b2a57600080fd5b50610b33613008565b005b348015610b4157600080fd5b50610b60600480360381019080803590602001909291905050506131f0565b604051808273ffffffffffffffffffffffffffffffffffffffff1673ffffffffffffffffffffffffffffffffffffffff16815260200191505060405180910390f35b6003602052806000526040600020600091509050806000015490806001015490806002015490806003018054600181600116156101000203166002900480601f016020809104026020016040519081016040528092919081815260200182805460018160011615610100020316600290048015610c605780601f10610c3557610100808354040283529160200191610c60565b820191906000526020600020905b815481529060010190602001808311610c4357829003601f168201915b5050505050908060040160009054906101000a900460ff16908060040160019054906101000a900460ff16908060040160029054906101000a900460ff16908060050154908060060154908060070154908060080160009054906101000a900473ffffffffffffffffffffffffffffffffffffffff1690508b565b600060036000838152602001908152602001600020600701549050919050565b600060036000838152602001908152602001600020600101549050919050565b60046020528060005260406000206000915090505481565b600060036000838152602001908152602001600020600001549050919050565b60008060006001811115610d6357fe5b6003600085815260200190815260200160002060040160029054906101000a900460ff166001811115610d9257fe5b141515610e07576040517f08c379a000000000000000000000000000000000000000000000000000000000815260040180806020018281038252600c8152602001807f77726f6e6720737461747573000000000000000000000000000000000000000081525060200191505060405180910390fd5b3373ffffffffffffffffffffffffffffffffffffffff166003600085815260200190815260200160002060080160009054906101000a900473ffffffffffffffffffffffffffffffffffffffff1673ffffffffffffffffffffffffffffffffffffffff16141515610ee0576040517f08c379a00000000000000000000000000000000000000000000000000000000081526004018080602001828103825260098152602001807f6e6f74206f776e6572000000000000000000000000000000000000000000000081525060200191505060405180910390fd5b4262015180600360008681526020019081526020016000206000015401101515610f72576040517f08c379a000000000000000000000000000000000000000000000000000000000815260040180806020018281038252600a8152602001807f77726f6e6720646174650000000000000000000000000000000000000000000081525060200191505060405180910390fd5b60036000848152602001908152602001600020600701546003600085815260200190815260200160002060060154039050610fcc60036000858152602001908152602001600020600201548261323090919063ffffffff16565b600460006003600087815260200190815260200160002060080160009054906101000a900473ffffffffffffffffffffffffffffffffffffffff1673ffffffffffffffffffffffffffffffffffffffff1673ffffffffffffffffffffffffffffffffffffffff16815260200190815260200160002060008282540192505081905550611056613008565b7f7335cc51844dae7db9b120c868ed8bffd63ad0a86eac9ab5d34b4303c52a38e583600360008681526020019081526020016000206003016003600087815260200190815260200160002060080160009054906101000a900473ffffffffffffffffffffffffffffffffffffffff1660405180848152602001806020018373ffffffffffffffffffffffffffffffffffffffff1673ffffffffffffffffffffffffffffffffffffffff1681526020018281038252848181546001816001161561010002031660029004815260200191508054600181600116156101000203166002900480156111865780601f1061115b57610100808354040283529160200191611186565b820191906000526020600020905b81548152906001019060200180831161116957829003601f168201915b505094505050505060405180910390a160036000848152602001908152602001600020600080820160009055600182016000905560028201600090556003820160006111d29190613263565b6004820160006101000a81549060ff02191690556004820160016101000a81549060ff02191690556004820160026101000a81549060ff02191690556005820160009055600682016000905560078201600090556008820160006101000a81549073ffffffffffffffffffffffffffffffffffffffff021916905550506001915050919050565b600080600260008581526020019081526020016000206000015490503373ffffffffffffffffffffffffffffffffffffffff166002600086815260200190815260200160002060010160009054906101000a900473ffffffffffffffffffffffffffffffffffffffff1673ffffffffffffffffffffffffffffffffffffffff1614151561134e576040517f08c379a00000000000000000000000000000000000000000000000000000000081526004018080602001828103825260098152602001807f6e6f74206f776e6572000000000000000000000000000000000000000000000081525060200191505060405180910390fd5b6000600181111561135b57fe5b6003600083815260200190815260200160002060040160029054906101000a900460ff16600181111561138a57fe5b1415156113ff576040517f08c379a000000000000000000000000000000000000000000000000000000000815260040180806020018281038252600c8152602001807f77726f6e6720737461747573000000000000000000000000000000000000000081525060200191505060405180910390fd5b6003600082815260200190815260200160002060040160009054906101000a900460ff161515611497576040517f08c379a000000000000000000000000000000000000000000000000000000000815260040180806020018281038252600c8152602001807f6e6f74207472616461626c65000000000000000000000000000000000000000081525060200191505060405180910390fd5b82600260008681526020019081526020016000206002018190555060016002600086815260200190815260200160002060030160006101000a81548160ff021916908360018111156114e557fe5b02179055507fe63c56673e4c07fa9fa2ac29acbce90b9abdf102342203c4e8f43b51cb7b2e7a84828560405180848152602001838152602001828152602001935050505060405180910390a1600191505092915050565b600080600181111561154a57fe5b6003600084815260200190815260200160002060040160029054906101000a900460ff16600181111561157957fe5b1415156115ee576040517f08c379a000000000000000000000000000000000000000000000000000000000815260040180806020018281038252600c8152602001807f77726f6e6720737461747573000000000000000000000000000000000000000081525060200191505060405180910390fd5b3373ffffffffffffffffffffffffffffffffffffffff166003600084815260200190815260200160002060080160009054906101000a900473ffffffffffffffffffffffffffffffffffffffff1673ffffffffffffffffffffffffffffffffffffffff161415156116c7576040517f08c379a00000000000000000000000000000000000000000000000000000000081526004018080602001828103825260098152602001807f6e6f74206f776e6572000000000000000000000000000000000000000000000081525060200191505060405180910390fd5b61465042016003600084815260200190815260200160002060000154111515611758576040517f08c379a000000000000000000000000000000000000000000000000000000000815260040180806020018281038252600a8152602001807f77726f6e6720646174650000000000000000000000000000000000000000000081525060200191505060405180910390fd5b60016003600084815260200190815260200160002060040160026101000a81548160ff0219169083600181111561178b57fe5b02179055507fb1ea640e566b123205c87648bcdb3b81b2da85f499ec0dd19a93a1e198bb1aaa82600360008581526020019081526020016000206003016003600086815260200190815260200160002060080160009054906101000a900473ffffffffffffffffffffffffffffffffffffffff1660405180848152602001806020018373ffffffffffffffffffffffffffffffffffffffff1673ffffffffffffffffffffffffffffffffffffffff1681526020018281038252848181546001816001161561010002031660029004815260200191508054600181600116156101000203166002900480156118c05780601f10611895576101008083540402835291602001916118c0565b820191906000526020600020905b8154815290600101906020018083116118a357829003601f168201915b505094505050505060405180910390a160019050919050565b6060600360008381526020019081526020016000206003018054600181600116156101000203166002900480601f0160208091040260200160405190810160405280929190818152602001828054600181600116156101000203166002900480156119855780601f1061195a57610100808354040283529160200191611985565b820191906000526020600020905b81548152906001019060200180831161196857829003601f168201915b50505050509050919050565b60006003600083815260200190815260200160002060040160029054906101000a900460ff169050919050565b60026020528060005260406000206000915090508060000154908060010160009054906101000a900473ffffffffffffffffffffffffffffffffffffffff16908060020154908060030160009054906101000a900460ff16905084565b600060036000838152602001908152602001600020600501549050919050565b6000610708420188111515611ab8576040517f08c379a00000000000000000000000000000000000000000000000000000000081526004018080602001828103825260118152602001807f756e61636365707461626c65206461746500000000000000000000000000000081525060200191505060405180910390fd5b821580611ac457508782105b1515611b38576040517f08c379a00000000000000000000000000000000000000000000000000000000081526004018080602001828103825260188152602001807f756e61636365707461626c652063616e63656c2064617465000000000000000081525060200191505060405180910390fd5b620f4240600054101515611bb4576040517f08c379a000000000000000000000000000000000000000000000000000000000815260040180806020018281038252600f8152602001807f6576656e742049447320656e646564000000000000000000000000000000000081525060200191505060405180910390fd5b6000808154809291906001019190505550610160604051908101604052808981526020018881526020018781526020018681526020018515158152602001841515815260200160006001811115611c0757fe5b815260200183815260200160008152602001600081526020013373ffffffffffffffffffffffffffffffffffffffff1681525060036000805481526020019081526020016000206000820151816000015560208201518160010155604082015181600201556060820151816003019080519060200190611c889291906132ab565b5060808201518160040160006101000a81548160ff02191690831515021790555060a08201518160040160016101000a81548160ff02191690831515021790555060c08201518160040160026101000a81548160ff02191690836001811115611ced57fe5b021790555060e08201518160050155610100820151816006015561012082015181600701556101408201518160080160006101000a81548173ffffffffffffffffffffffffffffffffffffffff021916908373ffffffffffffffffffffffffffffffffffffffff1602179055509050507f425b2bb134c2156c75d0062ef45c90d8ead1e0a92119977fc2044f69408f02e46000548989898989898933604051808a81526020018981526020018881526020018781526020018060200186151515158152602001851515151581526020018481526020018373ffffffffffffffffffffffffffffffffffffffff1673ffffffffffffffffffffffffffffffffffffffff168152602001828103825287818151815260200191508051906020019080838360005b83811015611e2d578082015181840152602081019050611e12565b50505050905090810190601f168015611e5a5780820380516001836020036101000a031916815260200191505b509a505050505050505050505060405180910390a160019050979650505050505050565b600060036000838152602001908152602001600020600201549050919050565b60008060026000848152602001908152602001600020600001549050600180811115611ec657fe5b6002600085815260200190815260200160002060030160009054906101000a900460ff166001811115611ef557fe5b141515611f6a576040517f08c379a00000000000000000000000000000000000000000000000000000000081526004018080602001828103825260138152602001807f77726f6e67207469636b6574207374617475730000000000000000000000000081525060200191505060405180910390fd5b60006001811115611f7757fe5b6003600083815260200190815260200160002060040160029054906101000a900460ff166001811115611fa657fe5b14151561201b576040517f08c379a00000000000000000000000000000000000000000000000000000000081526004018080602001828103825260128152602001807f77726f6e67206576656e7420737461747573000000000000000000000000000081525060200191505060405180910390fd5b6002600084815260200190815260200160002060020154341115156120a8576040517f08c379a00000000000000000000000000000000000000000000000000000000081526004018080602001828103825260108152602001807f6e6f7420656e6f7567682070617965640000000000000000000000000000000081525060200191505060405180910390fd5b6002600084815260200190815260200160002060020154600460006002600087815260200190815260200160002060010160009054906101000a900473ffffffffffffffffffffffffffffffffffffffff1673ffffffffffffffffffffffffffffffffffffffff1673ffffffffffffffffffffffffffffffffffffffff1681526020019081526020016000206000828254019250508190555060026000848152602001908152602001600020600201543403600460003373ffffffffffffffffffffffffffffffffffffffff1673ffffffffffffffffffffffffffffffffffffffff1681526020019081526020016000206000828254019250508190555060006002600085815260200190815260200160002060030160006101000a81548160ff021916908360018111156121d957fe5b0217905550336002600085815260200190815260200160002060010160006101000a81548173ffffffffffffffffffffffffffffffffffffffff021916908373ffffffffffffffffffffffffffffffffffffffff1602179055507fdfc495a9ab5027ebf451b0bde607c053b25fdebc892e8bd60c755d720bd51d1f818433604051808481526020018381526020018273ffffffffffffffffffffffffffffffffffffffff1673ffffffffffffffffffffffffffffffffffffffff168152602001935050505060405180910390a16001915050919050565b600034600360008481526020019081526020016000206002015410151561233f576040517f08c379a00000000000000000000000000000000000000000000000000000000081526004018080602001828103825260108152602001807f6e6f7420656e6f7567682070617965640000000000000000000000000000000081525060200191505060405180910390fd5b6000600181111561234c57fe5b6003600084815260200190815260200160002060040160029054906101000a900460ff16600181111561237b57fe5b1415156123f0576040517f08c379a000000000000000000000000000000000000000000000000000000000815260040180806020018281038252600c8152602001807f77726f6e6720737461747573000000000000000000000000000000000000000081525060200191505060405180910390fd5b61012c42016003600084815260200190815260200160002060000154111515612481576040517f08c379a000000000000000000000000000000000000000000000000000000000815260040180806020018281038252600a8152602001807f77726f6e6720646174650000000000000000000000000000000000000000000081525060200191505060405180910390fd5b60036000838152602001908152602001600020600101546003600084815260200190815260200160002060060154101515612524576040517f08c379a000000000000000000000000000000000000000000000000000000000815260040180806020018281038252600d8152602001807f7469636b65747320656e6465640000000000000000000000000000000000000081525060200191505060405180910390fd5b60016000815480929190600101919050555060036000838152602001908152602001600020600601600081548092919060010191905055506080604051908101604052808381526020013373ffffffffffffffffffffffffffffffffffffffff16815260200160036000858152602001908152602001600020600201548152602001600060018111156125b357fe5b8152506002600060015481526020019081526020016000206000820151816000015560208201518160010160006101000a81548173ffffffffffffffffffffffffffffffffffffffff021916908373ffffffffffffffffffffffffffffffffffffffff1602179055506040820151816002015560608201518160030160006101000a81548160ff0219169083600181111561264a57fe5b021790555090505060036000838152602001908152602001600020600201543403600460003373ffffffffffffffffffffffffffffffffffffffff1673ffffffffffffffffffffffffffffffffffffffff168152602001908152602001600020600082825401925050819055507fdfc495a9ab5027ebf451b0bde607c053b25fdebc892e8bd60c755d720bd51d1f8260015433604051808481526020018381526020018273ffffffffffffffffffffffffffffffffffffffff1673ffffffffffffffffffffffffffffffffffffffff168152602001935050505060405180910390a160019050919050565b60006003600083815260200190815260200160002060040160009054906101000a900460ff169050919050565b6000600460008373ffffffffffffffffffffffffffffffffffffffff1673ffffffffffffffffffffffffffffffffffffffff168152602001908152602001600020549050919050565b60005481565b600060026000838152602001908152602001600020600001549050919050565b60006003600083815260200190815260200160002060040160019054906101000a900460ff169050919050565b600080600260008481526020019081526020016000206000015490503373ffffffffffffffffffffffffffffffffffffffff166002600085815260200190815260200160002060010160009054906101000a900473ffffffffffffffffffffffffffffffffffffffff1673ffffffffffffffffffffffffffffffffffffffff161415156128f3576040517f08c379a00000000000000000000000000000000000000000000000000000000081526004018080602001828103825260098152602001807f6e6f74206f776e6572000000000000000000000000000000000000000000000081525060200191505060405180910390fd5b6001808111156128ff57fe5b6003600083815260200190815260200160002060040160029054906101000a900460ff16600181111561292e57fe5b1415156129a3576040517f08c379a00000000000000000000000000000000000000000000000000000000081526004018080602001828103825260158152602001807f6576656e74206973206e6f742063616e63656c6564000000000000000000000081525060200191505060405180910390fd5b6003600082815260200190815260200160002060020154600460003373ffffffffffffffffffffffffffffffffffffffff1673ffffffffffffffffffffffffffffffffffffffff16815260200190815260200160002060008282540192505081905550600260008481526020019081526020016000206000808201600090556001820160006101000a81549073ffffffffffffffffffffffffffffffffffffffff021916905560028201600090556003820160006101000a81549060ff021916905550506003600082815260200190815260200160002060060160008154809291906001900391905055507f856f105c150817c7b4994960bcf1ff34f18912db8f0892ae56fb87470c8b9f3f8333604051808381526020018273ffffffffffffffffffffffffffffffffffffffff1673ffffffffffffffffffffffffffffffffffffffff1681526020019250505060405180910390a1600060036000838152602001908152602001600020600601541415612bd2576003600082815260200190815260200160002060008082016000905560018201600090556002820160009055600382016000612b549190613263565b6004820160006101000a81549060ff02191690556004820160016101000a81549060ff02191690556004820160026101000a81549060ff02191690556005820160009055600682016000905560078201600090556008820160006101000a81549073ffffffffffffffffffffffffffffffffffffffff021916905550505b6001915050919050565b60006002600083815260200190815260200160002060010160009054906101000a900473ffffffffffffffffffffffffffffffffffffffff169050919050565b600060036000838152602001908152602001600020600601549050919050565b60015481565b600080600260008481526020019081526020016000206000015490503373ffffffffffffffffffffffffffffffffffffffff166002600085815260200190815260200160002060010160009054906101000a900473ffffffffffffffffffffffffffffffffffffffff1673ffffffffffffffffffffffffffffffffffffffff16141515612d37576040517f08c379a00000000000000000000000000000000000000000000000000000000081526004018080602001828103825260098152602001807f6e6f74206f776e6572000000000000000000000000000000000000000000000081525060200191505060405180910390fd5b6003600082815260200190815260200160002060040160019054906101000a900460ff161515612dcf576040517f08c379a000000000000000000000000000000000000000000000000000000000815260040180806020018281038252600e8152602001807f6e6f742063616e63656c61626c6500000000000000000000000000000000000081525060200191505060405180910390fd5b426003600083815260200190815260200160002060050154111515612e5c576040517f08c379a00000000000000000000000000000000000000000000000000000000081526004018080602001828103825260128152602001807f6f7574206f662063616e63656c2064617465000000000000000000000000000081525060200191505060405180910390fd5b6003600082815260200190815260200160002060020154600460003373ffffffffffffffffffffffffffffffffffffffff1673ffffffffffffffffffffffffffffffffffffffff1681526020019081526020016000206000828254019250508190555060036000828152602001908152602001600020600701600081548092919060010191905055507f856f105c150817c7b4994960bcf1ff34f18912db8f0892ae56fb87470c8b9f3f8333604051808381526020018273ffffffffffffffffffffffffffffffffffffffff1673ffffffffffffffffffffffffffffffffffffffff1681526020019250505060405180910390a1600260008481526020019081526020016000206000808201600090556001820160006101000a81549073ffffffffffffffffffffffffffffffffffffffff021916905560028201600090556003820160006101000a81549060ff021916905550506001915050919050565b600060026000838152602001908152602001600020600201549050919050565b60006002600083815260200190815260200160002060030160009054906101000a900460ff169050919050565b6000600460003373ffffffffffffffffffffffffffffffffffffffff1673ffffffffffffffffffffffffffffffffffffffff1681526020019081526020016000205490506000600460003373ffffffffffffffffffffffffffffffffffffffff1673ffffffffffffffffffffffffffffffffffffffff1681526020019081526020016000208190555060008111156131ed573373ffffffffffffffffffffffffffffffffffffffff166108fc829081150290604051600060405180830381858888f1935050505015613144577f97c35397cb6acebd9df368c206404479fc4c80dd6034d1b28943aaf5826318703382604051808373ffffffffffffffffffffffffffffffffffffffff1673ffffffffffffffffffffffffffffffffffffffff1681526020018281526020019250505060405180910390a16131ec565b80600460003373ffffffffffffffffffffffffffffffffffffffff1673ffffffffffffffffffffffffffffffffffffffff168152602001908152602001600020819055507f18e0001795701fa7af27ed85fcb3c2de09a575c6800617f7cbda0aeb555b1dce33604051808273ffffffffffffffffffffffffffffffffffffffff1673ffffffffffffffffffffffffffffffffffffffff16815260200191505060405180910390a15b5b50565b60006003600083815260200190815260200160002060080160009054906101000a900473ffffffffffffffffffffffffffffffffffffffff169050919050565b60008082840290506000841480613251575082848281151561324e57fe5b04145b151561325957fe5b8091505092915050565b50805460018160011615610100020316600290046000825580601f1061328957506132a8565b601f0160209004906000526020600020908101906132a7919061332b565b5b50565b828054600181600116156101000203166002900490600052602060002090601f016020900481019282601f106132ec57805160ff191683800117855561331a565b8280016001018555821561331a579182015b828111156133195782518255916020019190600101906132fe565b5b509050613327919061332b565b5090565b61334d91905b80821115613349576000816000905550600101613331565b5090565b905600a165627a7a7230582028f2e91d393a4eaea6d27d1ea0a237d1c56c219b1bc48af11cfb7c0df8162a6e0029",
  "source": "pragma solidity ^0.4.24;\r\n\r\nlibrary SafeMath {\r\n    function mul(uint256 a, uint256 b) internal pure returns (uint256) {\r\n        uint256 c = a * b;\r\n        assert(a == 0 || c / a == b);\r\n        return c;\r\n    }\r\n \r\n    function div(uint256 a, uint256 b) internal pure returns (uint256) {\r\n        // assert(b > 0); // Solidity automatically throws when dividing by 0\r\n        uint256 c = a / b;\r\n        // assert(a == b * c + a % b); // There is no case in which this doesn't hold\r\n        return c;\r\n    }\r\n \r\n    function sub(uint256 a, uint256 b) internal pure returns (uint256) {\r\n        assert(b <= a);\r\n        return a - b;\r\n    }\r\n \r\n    function add(uint256 a, uint256 b) internal pure returns (uint256) {\r\n        uint256 c = a + b;\r\n        assert(c >= a);\r\n        return c;\r\n    }\r\n}\r\n\r\ncontract TicketingContract {\r\n    using SafeMath for uint256;\r\n    uint256 constant MAX_EVENT_COUNT = 1000000;\r\n    enum EventStatus {Pre, Canceled}\r\n    enum TicketStatus {Normal, ForSale}\r\n    uint256 public eventCount;\r\n    uint256 public ticketCount;\r\n    mapping(uint256 => Ticket) public tickets;\r\n    mapping(uint256 => Event) public events;\r\n    mapping(address => uint256) public balances;\r\n\r\n    event FundTransfer(address backer, uint amount);\r\n    event EventCreation(\r\n        uint256 eventId,\r\n        uint date,\r\n        uint ticketAmount,\r\n        uint ticketPrice,\r\n        string name,\r\n        bool isTicketTradable,\r\n        bool isTicketCancelable,\r\n        uint lastCancelDate,\r\n        address owner\r\n    );\r\n    event EventCanceled(uint256 eventId, string name, address owner);\r\n    event EventEnded(uint256 eventId, string name, address owner);\r\n    event TicketBought(uint256 ticketId, uint256 eventId, address owner);\r\n    event FailedToBuy(address buyer);\r\n    event FailedToTransfer(address backer);\r\n    event TicketCanceled(uint256 ticketId, address backer);\r\n    event ResellTicketListed(uint256 ticketId, uint256 eventId, uint price);\r\n    \r\n\r\n    struct Ticket {\r\n        uint256 eventId;\r\n        address owner;\r\n        uint price;\r\n        TicketStatus status;\r\n    }\r\n\r\n    struct Event {\r\n        uint date;\r\n        uint ticketAmount;\r\n        uint ticketPrice;\r\n        string name;\r\n        bool isTicketTradable;\r\n        bool isTicketCancelable;\r\n        EventStatus status;\r\n        uint lastCancelDate;\r\n        uint ticketsBought;\r\n        uint ticketsCanceled;\r\n        address owner;\r\n    }\r\n\r\n    constructor() public {\r\n        eventCount = 0;\r\n        ticketCount = MAX_EVENT_COUNT;\r\n    }\r\n\r\n    function createEvent(\r\n        uint date,\r\n        uint ticketAmount,\r\n        uint ticketPrice,\r\n        string name,\r\n        bool isTicketTradable,\r\n        bool isTicketCancelable,\r\n        uint lastCancelDate\r\n    ) public returns (bool) {\r\n        require(\r\n            date > now + 30 minutes, \r\n            \"unacceptable date\");\r\n        require(\r\n            !isTicketCancelable ||\r\n            lastCancelDate < date,\r\n            \"unacceptable cancel date\");\r\n        require(\r\n            eventCount < MAX_EVENT_COUNT, \r\n            \"event IDs ended\");\r\n\r\n        eventCount++;\r\n        events[eventCount] = Event(\r\n            date,\r\n            ticketAmount,\r\n            ticketPrice,\r\n            name,\r\n            isTicketTradable,\r\n            isTicketCancelable,\r\n            EventStatus.Pre,\r\n            lastCancelDate,\r\n            0,\r\n            0,\r\n            msg.sender);\r\n        emit EventCreation(\r\n            eventCount,\r\n            date,\r\n            ticketAmount,\r\n            ticketPrice,\r\n            name,\r\n            isTicketTradable,\r\n            isTicketCancelable,\r\n            lastCancelDate,\r\n            msg.sender);\r\n        return true;\r\n    }\r\n\r\n    function cancelEvent(uint256 eventId) public returns (bool) {\r\n        require(\r\n            events[eventId].status == EventStatus.Pre, \r\n            \"wrong status\");\r\n        require(\r\n            events[eventId].owner == msg.sender, \r\n            \"not owner\");\r\n        require(\r\n            events[eventId].date > now + 5 hours, \r\n            \"wrong date\");\r\n\r\n        events[eventId].status = EventStatus.Canceled;\r\n        emit EventCanceled(\r\n            eventId,\r\n            events[eventId].name,\r\n            events[eventId].owner);\r\n        return true;\r\n    }\r\n\r\n    function endEvent(uint256 eventId) public returns(bool) {\r\n        require(\r\n            events[eventId].status == EventStatus.Pre, \r\n            \"wrong status\");\r\n        require(\r\n            events[eventId].owner == msg.sender, \r\n            \"not owner\");\r\n        require(\r\n            events[eventId].date + 1 days < now, \r\n            \"wrong date\");\r\n\r\n        uint256 ticketsSold = (events[eventId].ticketsBought -\r\n            events[eventId].ticketsCanceled);\r\n        balances[events[eventId].owner] += ticketsSold.mul(\r\n            events[eventId].ticketPrice);\r\n        safeWithdrawal();\r\n        emit EventEnded(\r\n            eventId,\r\n            events[eventId].name,\r\n            events[eventId].owner);\r\n        delete events[eventId];\r\n        return true;\r\n    }\r\n\r\n    function buyTicket(uint256 eventId) public payable returns (bool) {\r\n        require(\r\n            events[eventId].ticketPrice < msg.value,\r\n            \"not enough payed\");\r\n        require(\r\n            events[eventId].status == EventStatus.Pre, \r\n            \"wrong status\");\r\n        require(\r\n            events[eventId].date > now + 5 minutes,\r\n            \"wrong date\");\r\n        require(\r\n            events[eventId].ticketsBought < events[eventId].ticketAmount,\r\n            \"tickets ended\");\r\n        \r\n        ticketCount++;\r\n        events[eventId].ticketsBought++;\r\n        tickets[ticketCount] = Ticket(\r\n            eventId,\r\n            msg.sender,\r\n            events[eventId].ticketPrice,\r\n            TicketStatus.Normal);\r\n        balances[msg.sender] += msg.value - events[eventId].ticketPrice;\r\n        emit TicketBought(eventId, ticketCount, msg.sender);\r\n        return true;\r\n    }\r\n\r\n    function safeWithdrawal() public {\r\n        uint256 amount = balances[msg.sender];\r\n        balances[msg.sender] = 0;\r\n        if (amount > 0) {\r\n            if (msg.sender.send(amount)) {\r\n                emit FundTransfer(msg.sender, amount);\r\n            } else {\r\n                balances[msg.sender] = amount;\r\n                emit FailedToTransfer(msg.sender);\r\n            }\r\n        }\r\n    }\r\n\r\n    function cancelTicket(uint256 ticketId) public returns (bool) {\r\n        uint256 eventId = tickets[ticketId].eventId;\r\n        require(\r\n            tickets[ticketId].owner == msg.sender,\r\n            \"not owner\");\r\n        require(\r\n            events[eventId].isTicketCancelable,\r\n            \"not cancelable\");\r\n        require(\r\n            events[eventId].lastCancelDate > now,\r\n            \"out of cancel date\");\r\n\r\n        balances[msg.sender] += events[eventId].ticketPrice;\r\n        events[eventId].ticketsCanceled++;\r\n        emit TicketCanceled(ticketId, msg.sender);\r\n        delete tickets[ticketId];\r\n        return true;\r\n    }\r\n\r\n    function returnAfterEventCanceled(uint256 ticketId) public returns (bool) {\r\n        uint256 eventId = tickets[ticketId].eventId;\r\n        require(\r\n            tickets[ticketId].owner == msg.sender,\r\n            \"not owner\");\r\n        require(\r\n            events[eventId].status == EventStatus.Canceled,\r\n            \"event is not canceled\");\r\n\r\n        balances[msg.sender] += events[eventId].ticketPrice;\r\n        delete tickets[ticketId];\r\n        events[eventId].ticketsBought--;\r\n        emit TicketCanceled(ticketId, msg.sender);\r\n        if (events[eventId].ticketsBought == 0)\r\n            delete events[eventId];\r\n        return true;\r\n    }\r\n\r\n    function resellTicket(uint256 ticketId, uint price) public returns (bool) {\r\n        uint256 eventId = tickets[ticketId].eventId;\r\n        require(\r\n            tickets[ticketId].owner == msg.sender,\r\n            \"not owner\");\r\n        require(\r\n            events[eventId].status == EventStatus.Pre,\r\n            \"wrong status\");\r\n        require(\r\n            events[eventId].isTicketTradable,\r\n            \"not tradable\");\r\n\r\n        tickets[ticketId].price = price;\r\n        tickets[ticketId].status = TicketStatus.ForSale;\r\n        emit ResellTicketListed(ticketId, eventId, price);\r\n        return true;\r\n    }\r\n\r\n    function buyTicketFromReseller(uint256 ticketId)\r\n        public payable returns (bool) {\r\n        uint256 eventId = tickets[ticketId].eventId;\r\n        require(\r\n            tickets[ticketId].status == TicketStatus.ForSale,\r\n            \"wrong ticket status\");\r\n        require(\r\n            events[eventId].status == EventStatus.Pre,\r\n            \"wrong event status\");\r\n        require(\r\n            msg.value > tickets[ticketId].price,\r\n            \"not enough payed\");\r\n\r\n        balances[tickets[ticketId].owner] += tickets[ticketId].price;\r\n        balances[msg.sender] += msg.value - tickets[ticketId].price;\r\n        tickets[ticketId].status = TicketStatus.Normal;\r\n        tickets[ticketId].owner = msg.sender;\r\n        emit TicketBought(eventId, ticketId, msg.sender);\r\n        return true;\r\n    }\r\n\r\n    function balanceOf(address _owner) public view returns (uint256) {\r\n        return balances[_owner];\r\n    }\r\n\r\n    function getEventDate(uint256 eventId) public view returns (uint) {\r\n        return events[eventId].date;\r\n    }\r\n\r\n    function getEventTicketAmount(uint256 eventId) public view returns (uint) {\r\n        return events[eventId].ticketAmount;\r\n    }\r\n\r\n    function getEventTicketPrice(uint256 eventId) public view returns (uint) {\r\n        return events[eventId].ticketPrice;\r\n    }\r\n\r\n    function getEventName(uint256 eventId) public view returns (string) {\r\n        return events[eventId].name;\r\n    }\r\n\r\n    function getEventIsTicketTradable(uint256 eventId) public view returns (bool) {\r\n        return events[eventId].isTicketTradable;\r\n    }\r\n\r\n    function getEventIsTicketCancelable(uint256 eventId) public view returns (bool) {\r\n        return events[eventId].isTicketCancelable;\r\n    }\r\n\r\n    function getEventEventStatus(uint256 eventId) public view returns (EventStatus) {\r\n        return events[eventId].status;\r\n    }\r\n\r\n    function getEventLastCancelDate(uint256 eventId) public view returns (uint) {\r\n        return events[eventId].lastCancelDate;\r\n    }\r\n\r\n    function getEventTicketsBought(uint256 eventId) public view returns (uint) {\r\n        return events[eventId].ticketsBought;\r\n    }\r\n\r\n    function getEventTicketsCanceled(uint256 eventId) public view returns (uint) {\r\n        return events[eventId].ticketsCanceled;\r\n    }\r\n\r\n    function getEventOwner(uint256 eventId) public view returns (address) {\r\n        return events[eventId].owner;\r\n    }\r\n\r\n    function getTicketEventId(uint256 ticketId) public view returns (uint256) {\r\n        return tickets[ticketId].eventId;\r\n    }\r\n\r\n    function getTicketOwner(uint256 ticketId) public view returns (address) {\r\n        return tickets[ticketId].owner;\r\n    }\r\n\r\n    function getTicketPrice(uint256 ticketId) public view returns (uint) {\r\n        return tickets[ticketId].price;\r\n    }\r\n\r\n    function getTicketStatus(uint256 ticketId) public view returns (TicketStatus) {\r\n        return tickets[ticketId].status;\r\n    }\r\n}",
  "sourcePath": "C:\\Users\\Anatoly\\Documents\\testcheck\\TicketingContract\\contracts\\TicketingContract.sol",
  "compiler": {
    "name": "solc",
    "version": "0.4.24+commit.e67f0147.Emscripten.clang"
  },
  "schemaVersion": "2.0.1",
  "updatedAt": "2018-09-13T19:40:42.395Z"
}